:020000040000FA
:1000000050132020690200006D0200006F02000002
:1000100000000000000000000000000000000000E0
:10002000000000000000000000000000710200005D
:1000300000000000000000007302000075020000D4
:10004000770200006D3100007702000077020000A7
:1000500077020000770200007702000077020000BC
:10006000000000007702000077020000000000009E
:10007000000000007702000077020000E93F000066
:10008000113F0000770200007702000077020000B5
:10009000770200007702000000000000000000006E
:1000A000770200007702000000000000000000005E
:1000B00077020000000000007702000077020000D5
:1000C00000F002F800F0C1F80CA030C8083824187D
:1000D0002D18671EA246AB4654465D46AC4201D180
:1000E00000F0B3F87E460F3EB6460FCC01263342F1
:1000F00000D0FB1A3343A246AB4618472C830000BE
:100100004C83000000000000103A02D378C878C188
:10011000FAD8520701D330C830C101D504680C6049
:100120007047000000000000002300240025002686
:10013000103A01D378C1FBD8520700D330C100D5A3
:100140000B60704710B56E2902D100F06FFE10BD34
:10015000702902D100F09FFF10BD662902D105F081
:10016000C5FF10BD652902D105F0C0FF10BD67298C
:1001700002D105F0BBFF10BD612902D105F0BEFF21
:1001800010BD03681B0A01D380231943692902D1DA
:1001900000F016FE10BD642902D100F011FE10BD62
:1001A000752902D100F00CFE10BD6F2902D100F0BC
:1001B0001DFF10BD782902D100F05AFF10BDE929BA
:1001C00002D100F0B9FE10BDE42902D100F0B4FE66
:1001D00010BDF52902D100F0AFFE10BDEF2902D10C
:1001E00000F010FF10BDF82902D100F04FFF10BD44
:1001F0000368DB0901D380231943632902D101F08D
:100200004AFC10BD732902D101F04DFC10BDE32959
:1002100002D101F057FC10BDF32902D101F05AFCC4
:1002200010BD002010BD1FB501F0F0FC040000203F
:10023000002105F0EBFD401C60600020002105F06E
:10024000CFFDE0601FBD10B510BD01F0B7FC114639
:10025000FFF7E9FF05F038FC02F04CF803B4FFF7B4
:10026000F2FF03BC03F078FF06480047FEE7FEE715
:10027000FEE7FEE7FEE7FEE703480449044A054BB4
:1002800070470000C10000005002202050132020C1
:1002900050032020500320200FB4054910B503AAB5
:1002A000029800F0D7FD10BC08BC04B0184700004D
:1002B000E0002020002203098B422CD3030A8B424A
:1002C00011D300239C464EE003460B433CD400224E
:1002D00043088B4231D303098B421CD3030A8B4260
:1002E00001D394463FE0C3098B4201D3CB01C01A2E
:1002F000524183098B4201D38B01C01A52414309F9
:100300008B4201D34B01C01A524103098B4201D3E6
:100310000B01C01A5241C3088B4201D3CB00C01A53
:10032000524183088B4201D38B00C01A52414308CB
:100330008B4201D34B00C01A5241411A00D20146F0
:100340005241104670475DE0CA0F00D04942031089
:1003500000D3404253409C46002203098B422DD3D8
:10036000030A8B4212D38901FC2212BA030A8B4280
:100370000CD3890192118B4208D3890192118B42CF
:1003800004D389013AD0921100E08909C3098B4254
:1003900001D3CB01C01A524183098B4201D38B0197
:1003A000C01A524143098B4201D34B01C01A52413A
:1003B00003098B4201D30B01C01A5241C3088B427F
:1003C00001D3CB00C01A524183088B4201D38B006A
:1003D000C01A5241D9D243088B4201D34B00C01AF4
:1003E0005241411A00D201465241104663465B1009
:1003F00001D34042002B00D54942704763465B1051
:1004000000D3404201B50549002802DC491C0840E0
:1004100000E00846C046C04602BD00BFFFFFFF7FA8
:1004200070477047704700000246C80FC0078143FD
:100430004B0030B54B405B009B0D20D01923DB06F1
:10044000C91801231B05994220DB0324A4070425B6
:100450001346AB400BD3002B04D1EB0613409B009B
:10046000E34204D401246407002312195941FF23F5
:100470001B0599420BD2C9000143500F09E0CB0282
:1004800004D501430803024305D0054830BDFF21D0
:10049000C905084330BD084607210905884330BD1A
:1004A0000000C07FF0B50C46871A9C410D46861AA5
:1004B0009D4103D2C01BA141D21963410D0D1F0DF7
:1004C000C94EEC1BAE435CD07F057F0D0026002F8C
:1004D00051D02D05AC46A943DD020123ED0A1B05D1
:1004E0001D4320231B1B24D41746E74038187141B5
:1004F0002F46E740CC199D402818314661410C0D2C
:1005000027D161449A4013D50023401C5941520021
:100510000ED14008400001224B005205D34207D3C0
:1005200005204007C14201D5B04900E0B04930463E
:10053000F0BD6B00002A00D001229A181F23203C36
:100540001B1B01D5002302E0E540281871410C0D6A
:10055000D7D0012424050919C407CD07400849084C
:10056000E40F28436144002CD5D00024401C614195
:100570009A40D0D1CDE76A05520DD9D1C90FC9072C
:10058000D5E79C4D4E00002801D0012400E0002456
:1005900034195F00002A01D0012600E00026BE19B0
:1005A000954FAC420CD8AE420AD8B44206D00125D1
:1005B0006D05EC42BCD010461946F0BD9942FCD006
:1005C00000203946F0BDF0B51FB40C460F46811A25
:1005D0009F412546861A9D4106D20125ED076F40B1
:1005E000401ABC4152187B41210D1E0D8D1BAC469B
:1005F0007D4D8D437ED075056D0D7CD00D05AE46CD
:10060000AC431B031B0B794D52429D412023664690
:100610009B1B14D31746F7403818002600907441EE
:1006200060462F460741E41900989D40281866410E
:1006300016D4714671189A4025D5012320E09318ED
:100640002A466A415200002B00D0521C1E23203E35
:100650009B1B002B61DD3541EE1728186641E8D55C
:10066000001876415B1C9A4000D3401C4B05F318E0
:100670001524E34010D3002B52D071467118D30FCC
:10068000C01802D3491C05B0F0BD0123DB079A4214
:10069000F9D140084000F6E701225205B21801D115
:1006A000002853D00123CC0ADB029943891E002A7B
:1006B00008D1020C03D0020C0004103902E00246FB
:1006C000002020390023550B05D112020823550BB9
:1006D00001D152010D23550C01D112011B1DD50C66
:1006E00001D192009B1C150D01D152005B1C2025ED
:1006F000EE1A01E02CE022E00546F5401543984053
:10070000CA1AE10769181305C918002ABBDA0320C1
:1007100040070818C10FC9070FE071466118B2E71A
:10072000F10740080843711071444A000CD00123BE
:100730005B059A42A7D2C90FC9070020A3E7490564
:10074000490D26D1002001E00028F4D100219AE7CC
:10075000284D6600002801D0012100E00021711819
:100760005F00002A01D0012600E00026BE19224FBA
:10077000A94210D8AE420ED8B14208D001256D056D
:10078000E94206D01946A802414010467BE79C4248
:1007900001D0214677E70020394674E710B50C46B2
:1007A0005C4005D50124E4076340FFF70CFF10BD52
:1007B000FFF778FE10BD30B40C465C4004D5012430
:1007C000E407634030BC6DE630BCFCE670B5012444
:1007D000E40761400D465D4002D4FFF763FE70BD43
:1007E0006340FFF7F0FE70BDFF0700000000F0FF60
:1007F0000000F07F0000E0FF0000F87F1F22030CE4
:1008000002D10F22000402D0030E03D004E0002026
:10081000014670470002083A030F01D10001121F80
:10082000830F01D18000921E002801DB4000521E80
:10083000120551184205C012411810467047C10FE9
:10084000C90700D04042012292071143D6E7012197
:100850008907D3E7F0B58B4C0F09254689B0BD4316
:100860007BD01D092646AE43FAD00E465E40274097
:10087000F60F3E43254071D024012142FBD0FF24D6
:10088000AD19A4042D1B039501252D05DB02DB0A00
:10089000C9022B43C90A29431E010901040F130F82
:1008A000050121431701880B820391432D098C46D2
:1008B000A90B1E438A039543B30B9A0396433F0942
:1008C000BA0B9403A74302962E467E430497B6467E
:1008D0004E19D7190C460196544305977E43371B92
:1008E0007646BF1B3601B646BE0B361900967646D5
:1008F000BC043719009C01D3641C00946400002FD1
:1009000001D001263443029E049F754366467E4310
:100910000496760034196E0034190094029C019EEE
:100920001C196643751BAE46069465464519059C21
:1009300005956C43594375460891691A0191049EC7
:1009400001465143A41B0491611A009C0791E106E2
:1009500005D061090122114302E072E06EE06109F5
:10096000089D00272C0A2D066918049D7C412A0A3F
:100970002D066918019D6241AC0DAD026D18544100
:10098000079A910D920255196141029A64465843A3
:100990005443069B059A5A43121A131B9A0E9B0145
:1009A0005B187A41010B0005C3185141220A200649
:1009B00044195A419A4200D2491C01204002814206
:1009C00003D315230226F64302E014230326F6433D
:1009D0002020C51AA9401746AF40DA400A432046F6
:1009E0000399D8400914731819055118039A38430C
:1009F000D2075140AC4009D00122944006D30022D6
:100A0000401C5141002C01D1400840001E4A934235
:100A100012D3012203989206904207DB052040077B
:100A200009181A480143C012414004E0032040075E
:100A30000818C10FC907002009B0F0BD0020F10758
:100A4000FAE705180C464C4111486D42A04115D3F8
:100A500094181A465A410E48644290410ED3012020
:100A60004A004005824209D35A00824206D35940C7
:100A7000C90F084AC90700201143DDE700200649D5
:100A8000DAE700000000FF07FE070000FFFFFF7F1E
:100A90000000E0FF0000F07F0000F87F0121C905A1
:100AA0000123411842001B06D3185B0E0AD0C11067
:100AB0000722D206891840075242D14201D552007E
:100AC00089187047090208D50146002A03D0C10FD2
:100AD000C9070020704710467047420202D000202C
:100AE00002497047072109050143F4E70000F87F38
:100AF000F0B5FF252D04C609C209FF2704462E4084
:100B00000137CB093E4348402A402B400746002A84
:100B10006BD0002B69D0AA4267D0AB4265D00028C9
:100B200000DA32460125ED0529432C430902200253
:100B3000090AD21A4B0C7F24E31A434C000A7C4466
:100B4000E35C7D242404121914145B00A21888426B
:100B500001D3521C00E0400049420C465C43241182
:100B60005C43DB016415E318040A5C43C502200DF5
:100B70000C4644436419250A5D432303EC0C0D46DF
:100B8000654300030019EB184C42A34201D35B18E4
:100B9000401CD4052018002B07D05B00C91804D3D3
:100BA000401C002901D1400840003F2189048A42AD
:100BB00009D3002A08DC1106090F04D003214907D4
:100BC0004018C00FC007F0BD01224100120689186D
:100BD0007F2252069142F6D205214907C84201D52B
:100BE0009010F0BDFF20C005F0BD002F00DA3246A6
:100BF0001648AA4207D2AB4205D21902090E17D0F5
:100C0000F80FC007F0BDFF2563002D06AB42F9D8F1
:100C10004900A942F6D8AB4201D1A942F2D0A9427B
:100C200001D1002101E061004908D0050843F0BD71
:100C30001102090EFBD0FF200243D005F0BD0A4689
:100C40000146104654E70000CA5500000000C07F6E
:100C500010B501469E240002CA15A307002A02D03F
:100C60001843002A04DBA21A002A0CDDD04010BD74
:100C70001206120E01D140004008A21A03D4D0403F
:100C800040420028F3DDFF2248001206904201D9BD
:100C9000002010BDC817C043584010BD1F22030CD0
:100CA00002D10F2200041CD0030E01D10002083A29
:100CB000030F01D10001121F830F01D18000921E8A
:100CC000002801DB4000521ED205511802125118B3
:100CD0001922904004D3491C002801D14908490039
:100CE00008467047C10FC90700D040420122920751
:100CF0001143D3E701218907D0E770B50446856920
:100D00000068C10601D5302600E02026C00707D0C4
:100D100070BD62683046A1689047206A401C20621E
:100D20006D1EF6D570BD70B5044685690078C007A4
:100D300007D170BD6268A16820209047206A401CDE
:100D400020626D1EF6D570BD09684A0501D540B216
:100D50007047C905FCD500B2704709684A0501D53E
:100D6000C0B27047C905FCD580B2704770B50C465B
:100D70000546012A05D02878800600D5EA690023B7
:100D800002E0012305E05B1C934202D2E05C0028F4
:100D9000F9D1A869E618C01AA861286AC0182862A3
:100DA0002846FFF7AAFF04E06A682078A968641C57
:100DB0009047B442F8D32846FFF7B5FF70BD000056
:100DC000F7B5002575291068009914A611D0FFF712
:100DD000BBFF002802DA404211A608E0009909682A
:100DE0008A0701D50FA602E0490704D50EA6012502
:100DF00001E0FFF7B2FF009F0024243704E000F079
:100E000092FE30313955641C0028F8D12B46324609
:100E10002146009800F04DFAFEBD000000000000E1
:100E20002D0000002B000000200000001168026867
:100E3000006A530501D5087009E0D30501D5088083
:100E400005E0130602D5C21705C100E008600120C5
:100E500070470000084B70B50D467B4400F0FDFD67
:100E60000446284600F03AFE002802D00020C04385
:100E700070BD204670BD0000CF330000F7B50446BA
:100E8000154686B02B487844002703C83E4600909C
:100E9000019111E007986A467100415A02A800F0DA
:100EA00021FE411C07D02178890603D5E269391853
:100EB00091420ED83F18761C2078800602D5E06952
:100EC000B84206DDAE42E5DB07987100405A0028C3
:100ED000E0D1A069C01BA0612046FFF70EFF1548B6
:100EE00078445A3803C800900020019116E0410070
:100EF0006A460798415A02A800F0F4FD0590401C8C
:100F00000AD0002505E0626802A8A168405D90470C
:100F10006D1C05988542F6D30498401CB04204909D
:100F2000E5DB206AC01920622046FFF7FCFE09B00D
:100F3000F0BD0000C2520000F7B5D21D0025D20856
:100F400015A6D200F52905CA11D0002A05DA00211C
:100F50004042914111A60A4608E0009909688B07B2
:100F600001D50FA602E0490701D50EA601251146BD
:100F7000009F0024243704E000F05EF930323A5537
:100F8000641C02460A43F7D12B463246214600989C
:100F900000F08FF9FEBD0000000000002D000000F1
:100FA0002B0000002000000070B50446002124340E
:100FB00008E05507D2086D0F303565545D072A43A8
:100FC000DB08491C15461D43F3D10468002310A219
:100FD000250708D520252C400C4304D0C4690123E3
:100FE0000CA2641EC46100F064F970BD10B5044623
:100FF00021461068FFF7B1FE002302462046FFF7A6
:10100000D3FF10BDD21DD108C9000CC9CCE7000028
:101010000000000030000000F8B50F460188090507
:1010200002D5224C7C4402E0204C7C440E34054620
:101030000021243508E016071209360FA65D6E540C
:101040001E0732431B09491C16461E43F3D1224694
:1010500004780023240705D5702F06D0002901D07D
:101060000223113200F025F9F8BD01231032F9E70F
:1010700070B504460D4621461068FFF76EFE00234A
:10108000024629462046FFF7C7FF70BDD21DD30890
:10109000DB000CCBC0E730B4036820241268234384
:1010A00003600823C36130BC0023B5E72C51000066
:1010B000F3B50446002081B020622046E1688847ED
:1010C000002872D0252802D06268A168ABE0594F91
:1010D00000267F442046E16888472028054608DB33
:1010E000312D06D2781920380078002801D0064327
:1010F000F0E7B00701D5042086430020E0610746F1
:10110000A0612A2D0AD0284604F062FE002827D0CC
:10111000B8000019303D0090856119E00298BA00CE
:10112000121902C8916102902046E1688847012F98
:10113000054617D1E06900281FDA202086431CE00D
:1011400000980A2180694843009940193038886125
:101150002046E1688847054604F03AFE0028EFD1B2
:10116000012F0AD02E2D08D12046E1688847054678
:10117000202006437F1C022FC3DBA069002803DA6E
:101180004042A06101200643F00701D010208643B1
:101190006C2D0BD0682D09D04C2D3CD06A2D38D049
:1011A000742D38D07A2D36D016E040E0E1682F4615
:1011B00020468847B842054609D16C2F29D0012026
:1011C0008002E168064320468847054604E06C2F0C
:1011D0001DD0FF2001300643002D28D0284641387D
:1011E000192803D80120C002064320352046266076
:1011F0002946029A1646FEF7A5FF002810D00128BE
:101200000BD0F61DF008C0000830029055E74020D2
:10121000E1E78020D5E70020D3E7361D02964CE7B2
:1012200062682846A1689047206A401C44E7206A0B
:10123000FEBD0000A65000000B4670B502468907AF
:101240008008084319469D08141AA9412509080772
:10125000054308092C194841250A01060D43010AD6
:101260002C194141200C0D0428430D0C00194D414F
:10127000002140194D41C00869070843E908840F5F
:101280008D002543840024184D4124196D41121B03
:10129000AB4107E00925ED432C11521963410024AD
:1012A000401C61411C460A250026551BB441F1D261
:1012B00070BDFFB504460D4681B024300090216812
:1012C000880604D51022E0699143216000E00120E6
:1012D000A84201DD471B00E000270498A1697A19A4
:1012E0001018081AA0612078C00602D42046FFF723
:1012F00004FD002608E003986268A168805D9047BD
:10130000206A401C761C206204988642F3DB207819
:10131000C0060AD52046FFF7F0FC06E06268A16827
:1013200030209047206A401C206238467F1E0028EB
:10133000F4DC07E000986268A168405D9047206A8D
:10134000401C206228466D1E0028F3DC2046FFF773
:10135000EAFC2078000602D5022005B0F0BD01208D
:10136000FBE70000FFB50C461E468FB003CA08908D
:1013700009914F007D0D00D16D1E0021084600200F
:10138000C0460321099A89050840002A03DA820031
:10139000801840080840800D01280A9002DD0020D6
:1013A000C0430A90089807430DD0F048F049281828
:1013B00048430714189800281DD07542291E1DDDCA
:1013C0000A9842421BE01898012802D000203021E0
:1013D00004E00020F24305E02154401CB042FBDB56
:1013E00030460022189B002121540F998B600A601F
:1013F000486013B0F0BDBD1B6D1CDFE70A9A0029E1
:1014000000DA69420BA800F049FC0BAB07CB03AB39
:1014100007C30899099800F0ADFC6B4607C3014665
:10142000D4480918002D00910BDDD24903980A9A7F
:1014300049424018002303A90390684600F00AFFC0
:1014400008E003990A9A0023081803A90390684644
:1014500000F0AAFE6B4607C30004000C03D0002076
:10146000C043410800E01046189A002A03D0002229
:10147000009215461EE0751E05D4FFF7DDFE3032E2
:1014800062556D1EF9D501220843079602D000224D
:101490007F1C04E02078302801D100227F1E002A22
:1014A000069787D01EE0112D07DAFFF7C5FE303210
:1014B00062556D1C02460A43F5D1084303D00098DB
:1014C000002819D00EE00021681E05E0235C625C54
:1014D00063542254401E491C8142F7DBA81B401E66
:1014E00007950690079A18990020A0540F98079B1B
:1014F000069A81600CC07CE711260020189059E7FD
:10150000D21DF0B50D460446D10893B0C90003C9F9
:101510000C900D9104F02EFC02460D98C00F01D0E6
:101520002D2007E02068810701D52B2002E040072D
:10153000C00F4001032A0F9001D0072A05DB0346A4
:101540002946204600F066FB0EE12078800601D592
:10155000E76900E006272846652D04D0662814D0E8
:10156000672D69D12DE00020112F009001DB1123A0
:1015700000E07B1C0CAA03A910A8FFF7F3FE119949
:10158000002610987D1C0E9142E001203B460CAADB
:10159000C0070B900120009003A910A8FFF7E2FEFE
:1015A000119D12981099002600280E9501D1781CE3
:1015B0000D18781B02D446427D1C761EE81B009055
:1015C0003AE0012F00DA01270020112F009001DD01
:1015D000112300E03B460CAA03A910A8FFF7C2FEA6
:1015E00011993D46109800260E91217809070BD4D9
:1015F0000E99A94200DA0D4603A9012D04DD4A190E
:10160000203AD27F302A06D0B84201DA011D04DA2E
:10161000012100910FE06D1EEFE7002802DC861922
:101620002D1A03E0411CA94200DD0D46801B401C21
:1016300000900120C0070B902078000705D4009887
:10164000A84202DB0020C043009069460020C87217
:101650000B98012102AF0337C907884225D0022029
:1016600010902B2011900B9800280BDA40420B9021
:101670002D20119006E00B9800F055FA30317F1EB6
:101680000B9039701099481E00291090F3DC0B98CC
:101690000028F0D111987F1E38702088000501D5F0
:1016A000452000E065207F1E387001A8C01BC01DCA
:1016B0000B900F98002800D0012041190098C01706
:1016C00009180B980818A169081A401EA061207813
:1016D000C00602D42046FFF710FB0F98002805D063
:1016E0006268A1689047206A401C20622078C0068A
:1016F00025D52046FFF701FB21E0002E07DB0E98E1
:10170000B04204DD03A86268805DA16802E06268FF
:10171000A16830209047206A761C401C2062009807
:10172000401E002800900AD100F070FAC06862687C
:101730000168405CA1689047206A401C20622846EE
:101740006D1E0028D9DC07E062683878A1687F1C2C
:101750009047206A401C20620B99481E00290B907C
:10176000F2DC2046FFF7DFFA032042E601FCFFFF30
:10177000104D0000E1DFFFFFD21DF0B504460D461D
:10178000D0088DB0C000466807683146384604F07E
:10179000F1FA0246F00F01D02D2307E020688107FF
:1017A00001D52B2302E04007C00F43016846002B00
:1017B000037001D0012000E00020032A0A9001D02C
:1017C000072A04DB2946204600F024FA2DE1207880
:1017D000800601D40D2500E0E5697000400D0D2D57
:1017E00001904BDA300D00210B9008460020C046D6
:1017F000032189050840002E05DA82008018C20FF7
:101800001018401008408015012801DD0020C04359
:10181000A9000023182906D39C460A460123183A3A
:101820001B07D34003E001221205CA4094460C3145
:10183000202902D33A46203900E032468A40002867
:1018400002DD002A06D119E0002817D10121C907BD
:101850008A4213D3194663467F185E41002806D199
:101860000120C007824202D1084687439E430B985D
:10187000310D814202D00198401C01902088000562
:1018800002D57149794402E06F49794419396B46B0
:101890000A9830221A540A980A7C401C1A54401C98
:1018A0000A900198002801DC302000E031201872F5
:1018B000019A0120002A02D0644BD21804E0720081
:1018C0003A4302D0614A521C0192002D02DC227878
:1018D000120703D56A462E20507202200022864647
:1018E00094460CE032033601120F6D1E8B5C02AA87
:1018F00013546246521C401C9446052A01DA002DFE
:10190000F0DC002202AE08E03B0F3F01CB5C521C32
:101910006D1E3354401C082A01DA002DF4DC2368C4
:101920009A0601D511E0401E704504DD3218203AB8
:10193000D27F302AF7D0002807DD3218203AD27F34
:101940002E2A02D11A0700D4401E002D03DD3E22AC
:101950003254401C6D1E497C31540199401C0029B1
:1019600006DA2D21471C315401984042019003E0D2
:101970002B21471C315401987D21C900884206DB88
:10198000FEF7A2FC3030F0557F1C019101E0642885
:1019900008DB01986421FEF797FC3030F0557F1C7E
:1019A000019101E00A2806DB01980A21FEF78CFC70
:1019B0003030F0557F1C01980A21FEF785FC30314C
:1019C000F1550A98A1697F1C7A191018081AA061AC
:1019D0002078C00602D42046FFF78FF9216A6E46B0
:1019E0000A980818206204E062683078A168761CC2
:1019F00090470A98401E0A90401CF5D12078C006F6
:101A000002D52046FFF779F902AE09E03078761C5E
:101A10003E280DD06268A1689047206A401C206271
:101A20007F1EF3D22046FFF77EF90DB00320F0BDF4
:101A3000206A4019206203E06268A1683020904764
:101A40006D1EEDD3F8E700001849000001FCFFFF10
:101A500001694A1C02610878704700B58FB0029195
:101A600000210591054901937944039111460490A1
:101A70006846FFF71DFB0FB000BD0000E5FFFFFF4C
:101A800010B54369002B02D0C046C04601E0FFF705
:101A90006DF9012010BD1278014624310A70002230
:101AA0004A700122ECE711680022D243E8E710B542
:101AB0004369002B02D0C046C04601E0FFF7DEF9C3
:101AC000012010BD12880146243182840022C28484
:101AD0000122ECE711680022D243E8E7C0688021C8
:101AE00008407047F8B516460C46054600F086F8E3
:101AF0000368FF200230C05C012807D0FF2C0FD8FC
:101B0000185D00280CD001202C70F8BDFF33324640
:101B1000214608331868C71828460023B847F8BD7F
:101B20000020C043F8BD01468008081A02091018B9
:101B3000020A1018020C1018C00882001218520075
:101B4000891A01E0401C0A390A29FBD270470000BB
:101B500010B5FF231B0644009C421DD84C009C423C
:101B60001AD80346124A0B4307D4401A02D3EFF3A4
:101B7000008010BDEFF3008010BD081A03D3EFF30F
:101B80000080904305E0EFF3008001219043C907F6
:101B9000084380F3008810BD0D231B041A4204D0B3
:101BA0001146002000F0AEFB10BD00F0C3FB10BDDD
:101BB0000000009000487047200020207546FFF785
:101BC000F9FFAE46050069465346C008C000854689
:101BD00018B020B5FEF750FB60BCB64600260027C3
:101BE000C0C5C0C5C0C5C0C5C0C5C0C5C0C5C0C5CD
:101BF000403D490849008D467047000010B500F08F
:101C000005F8001D10BD00BF0542000000487047E8
:101C100040002020F8B51F46044601230068DB027F
:101C2000032601461840072A05DB002801D017A526
:101C300006E017A504E0002801D016A500E016A5CF
:101C4000102081432160A069C01E002FA06101D037
:101C5000401EA0612046FFF750F8002F09D03846FB
:101C60006268A1689047206A401C2062C01C206204
:101C700006E0206AFAE762682878A1686D1C904740
:101C8000761EF8D22046FFF74EF8F8BD4E414E00C2
:101C90006E616E00494E4600696E6600F7B51646E5
:101CA0008AB0334878446C4603467C33C06F5A6828
:101CB0009B680DC42E487844763003AC0DC80DC423
:101CC0003720C001081837211B30FEF7FDFA054602
:101CD0000C46803D1B3C02D56442012000E0002000
:101CE0000027099010E0E0070CD00C202049784331
:101CF000794432464C3941186846012300F054FAC1
:101D00006B4607C364107F1C002CECD1184F7F4436
:101D10002E3F16E0E80712D02001C0190EC8069128
:101D2000089307920068F04201D198190890324652
:101D3000012306A903A800F037FA03AB07C36D100F
:101D4000641C002DE6D10998002806D03246694669
:101D5000012303A800F07EFA05E00123324669461C
:101D600003A800F021FA0A9B07C30DB0F0BD0000E4
:101D70000C450000034640000A4610B5400D0BD04C
:101D80000121C9070F24A40200191C036408214380
:101D9000540D2143D20207E000210120F2E7D40FC5
:101DA000490021435200401E0029F8DADB0FDB070F
:101DB000184310BDFFB50D46144685B048685168FC
:101DC00003F0C0FF00910190A868A16803F0BAFF7A
:101DD00002910390A868616803F0B4FF029A121898
:101DE0008242029201D2012000E00020019A0B18E9
:101DF000D2180028019202D08A4202D903E08A4216
:101E000001D2012000E000200099081800906868C5
:101E1000A16803F097FF029A12188242029201D23F
:101E2000012000E00020019A0B18D218002801922E
:101E300002D08A4202D903E08A4201D2012000E0A6
:101E40000020009908180090286821684000490087
:101E5000400849084018FA49471814E00199400021
:101E6000C90F08430090019802994000C90F084328
:101E70000190029803994000C90F0843029003980B
:101E800040007F1E039000980028E7DA0898002899
:101E900001D0EC4E00E00026B74201DA012000E05C
:101EA0000020002804902AD0F71BF806C00E15D099
:101EB000029B2021091A039A8B401A430392029A2B
:101EC000019BC2408B401A430292019A009BC24080
:101ED0008B4000991A430192C14000917B110DD0B3
:101EE0006F460320C11A03D500218200B95003E0D8
:101EF0008A008100BA587A50401EF3D537460398BD
:101F00000299002800D0012001430898029100287E
:101F100008460CD0002800D001200199019A4905FB
:101F200008430121D20AC902D202019200E0012134
:101F30000E9B0122D207012B02D0002B03D013E00D
:101F4000002807D120E0904204D890420CD1019B98
:101F50000B4209D0019B5918019105D10099491CE8
:101F6000009101D17F1C009200280DD0102108465D
:101F70000020C0460498002806D00F98002803D0FF
:101F8000082108460020C04628682168019B009A65
:101F90004840C10F0598C90739430EC009B0F0BDCC
:101FA000FFB587B0099A0898089953689268406805
:101FB000896896460022039317469446089A126849
:101FC0005300099A5B081268520052089A1A9E4BF5
:101FD000D4180A9A002A01D0352200E04022069245
:101FE0000022012315460492DB07059324E0002D0F
:101FF00005D175460346039E4D1BB34109D3754673
:102000006646039B491B049D9841059B7519AC4688
:102010005F4163463B4308D0059B049EDD0776087D
:102020002E435B080496059301E0521E641EC50F03
:10203000ED0749184041521C069B9A42D7DB002D00
:1020400004D17546039A6B1A824101D203200CE039
:10205000039A0B466B404240134303D0014303D025
:10206000012002E0022000E00020614601910021F1
:10207000009702910A99002905D061464002014368
:10208000704B019102E08007002302909C4201DA2C
:10209000012000E0002007003AD01A1BD006C00E35
:1020A00015D0029D2021019C091AC5408C40254372
:1020B000029C8C4000D001242543019C0295009D88
:1020C000C4408D4000992C430194C14000915411AB
:1020D0001DD06D460221002202290CD10320001BD5
:1020E00007E0002804DB8600AE59002E00D0012254
:1020F000401C0328F5DB081B02D588002A5004E0A9
:102100008000285810438A00A850491EE3D51C4679
:102110000A98002802980CD0002800D001200199CC
:10212000019A490508430121D20AC902D20201924B
:1021300000E00121109B0122D207012B02D0002BCD
:1021400003D013E0002807D11FE0904204D890424A
:102150000CD1019B0B4209D0019B5918019105D16B
:102160000099491C009101D1641C009200280CD0F8
:10217000102108460020C046002F06D011980028E4
:1021800003D0082108460020C04608980999019A02
:10219000009B006809684840C10F0798C9072143A0
:1021A00082600AC00BB0F0BD00B585B0019300920B
:1021B0000A460146002302A8FFF7FCFD02A807C853
:1021C00005B000BDFFB50A461F4685B007990193CB
:1021D00001230091014602A8FFF7ECFD0299039844
:1021E000049ECA0F4900D20700920F2249089202AA
:1021F0008C1A0021002800DB0C46450013486D08AE
:10220000844214D3079A002A04DA441E0026104D93
:10221000F64302E004460D460E4610210846002013
:10222000C046002F03D0042108460020C0462005E8
:10223000E90A0843009908436905F20A1143ADE62B
:1022400002C0FFFF013C0000FF3F0000FF0700004D
:10225000FFFFFF7F00B585B0019300920A4601465B
:10226000002302A8FFF79CFE02A807C8A8E7FFB555
:102270000A461F4685B00799019301230091014644
:1022800002A8FFF78DFE02990398049ECA0F490029
:10229000D20700920F22490892028C1A00210028CE
:1022A00000DB0C46450011486D08844214D3079AA0
:1022B000002A04DA441E00260D4DF64302E00446CF
:1022C0000D460E46102108460020C046002F03D0C0
:1022D000042108460020C0462005E90A0843009969
:1022E00008436905F20A114358E60000FF070000A1
:1022F000FFFFFF7F10B50446C046C0462046FDF7ED
:10230000ADFF10BDC80212D54803400F002804D00D
:10231000C803C043012188407047EFF300800001EB
:10232000000903210907084380F300887047002053
:102330007047000010B5024800F048F810BD0000DA
:102340000000C07F024670B50A4392072AD11E4D95
:10235000EE0104C808C9541B9443344017D0D0B2CE
:10236000D9B2401A2106014310D190B299B2401A55
:10237000210401430AD110021902000A090A401A75
:102380002102014302D1100E190E401A70BD9A426B
:10239000DFD010BA19BA884201D9012070BD0020DF
:1023A000C04370BD02780B78401C491C002A09D03C
:1023B0009A4207D102780B78401C491C002A01D0B0
:1023C0009A42EFD0D01A70BD0101010110B50C4640
:1023D0001107090F092904D00A290AD008290CD1AC
:1023E00004E011460820FFF78DFF06E0510606D5F0
:1023F00001E0510601D50120C007214610BDD106DC
:1024000007D501010909CC084907000E000604435D
:1024100009E0410F20024907000A0143200E00068F
:102420001D22D14101430846E7E7000080B50E4870
:10243000007801280DDBFFE70B490878401E087083
:102440000120C106094800F087F9032001F04CFA89
:1024500008E00120C106054800F09CF8002001F0CA
:1024600043FAFFE780BDC0468000202000000A40FC
:1024700082B001900199881E001F00BFFCD200901D
:1024800002B0704784B003900291019203980068F3
:102490000090009801998843009000980299019A51
:1024A000114008430399086004B0704784B003905A
:1024B0000291019203980068009000980199884366
:1024C000009000980299019A11400843039908600E
:1024D00004B0704784B003900291019203980068A1
:1024E0000090009801998843009000980299019A01
:1024F000114008430399086004B0704784B003900A
:102500000291019203980068009000980199884315
:10251000009000980299019A1140084303990860BD
:1025200004B0704782B001900091009B0199094A64
:1025300088581843885002B07047C04682B0019056
:102540000091009B0199034A88581843885002B0B3
:102550007047C0464810000082B00190009100987A
:10256000019995225201885002B0704782B00190C3
:1025700000910098019995225201885002B070474D
:1025800082B00190009100980199952252018850E3
:1025900002B0704782B00190009100980199952295
:1025A0005201885002B0704782B0019000910098AB
:1025B000019995225201885002B0704782B0019073
:1025C0000091009B0199034A88581843885002B033
:1025D0007047C0462810000082B00190009100981A
:1025E0000199024A885002B07047C046D0120000DC
:1025F00081B0009000990120C2027248885001B059
:102600007047C04682B0019000910198024940583D
:102610000099084002B070473810000081B0009067
:1026200000988100204A0D48885001B07047C0468C
:1026300010B584B0069C0390029101920093029819
:102640000199084300990843069908430349084340
:1026500003998900144A885004B010BD8100040019
:1026600081B00090009881000F4A8120885001B00D
:102670007047C04682B0019000910098034908431A
:1026800001998900084A885002B070478000040010
:1026900082B001900091009880210843019989003F
:1026A000014A885002B070470480424082B00190D5
:1026B000009101982721C90140580099084002B0B3
:1026C000704782B00190009101982721C9014058BC
:1026D0000099084002B0704782B0019000910198C3
:1026E0002721C90140580099084002B070470000F6
:1026F00081B000900099554A5548885001B0704704
:1027000082B001900091009B0199034A88581843B8
:10271000885002B07047C0469013000082B001900C
:10272000009100980199164A885002B07047C0463F
:1027300082B00190009100980199114A885002B02E
:102740007047C04682B001900091009801990C4AF0
:10275000885002B07047C04682B001900091009846
:102760000199074A885002B07047C04682B0019074
:10277000009100980199024A885002B07047C04603
:102780009012000082B001900091009B01999D2061
:10279000420188581843885002B0704781B00090B9
:1027A00000991A4A885801231843885001B070478D
:1027B00081B0009000990120C2028148885001B088
:1027C0007047C0460100002680B582B0019000919C
:1027D0000198112109024018009A11895388194360
:1027E00092791143084AFFF789FE0198074940187A
:1027F000009A9188D3791943127811435D2292008F
:10280000FFF77CFE02B080BD7F33000004110000A2
:1028100081B00090009803494058102108400009F9
:1028200001B070471011000081B00090009802497B
:102830004058C0B201B070473011000081B0009024
:102840000099E64AE648885001B070470408000045
:10285000030000B180B582B00190009101984B490E
:1028600040180099024AFFF70DFE02B080BDC04635
:10287000FF03000082B00190009100980078019958
:10288000044A885000984078019901221203885028
:1028900002B070470410000080B584B000920A4670
:1028A00001460098039102A90A7001AA10700398CA
:1028B000044BC0180978127811433F22FFF7E2FD5C
:1028C00004B080BD0C11000082B001906846017018
:1028D0000078019945229201885002B070470000AB
:1028E0000649086801229043086070470349086858
:1028F00001221202904308607047C04608010B4055
:102900000349086801221203104308607047C0465B
:1029100004010B4081B0014668460170007802490D
:10292000086001B07047C04608030B4080B582B014
:10293000014601A80170017802480322FFF7A2FDB9
:1029400002B080BD00010B40094908680522104310
:102950000860704781B00090054904200860009825
:10296000401E0449086004490020086001B0704717
:1029700010E000E014E000E018E000E081B000901A
:102980000099024A0120885001B0704708110000E8
:1029900082B001900091009B0199034A8858184326
:1029A000885002B07047C0462810000081B00090E7
:1029B00000990120C2020248885001B07047C04609
:1029C0000100002680B58AB0099008910898007926
:1029D0000790002804D0FFE70798202812D029E0AC
:1029E000099808990968491E00F0CCF909988821CE
:1029F0000691002200F018F906990998012200F0CA
:102A000013F92AE0099808990968491E00F0BAF9F3
:102A100009982D490491002200F006F904990998BB
:102A20000122059200F000F905990998490700F084
:102A30009BF912E0099808990968490800F0A2F981
:102A400009980521C9010391002200F0EDF80399CE
:102A50000998012200F0E8F8FFE7099800230193A4
:102A600019461A4600F0FAF8019A099801230293D0
:102A7000114600F0F3F8019B0998009319461A4695
:102A800000F024F9019B02990998009119461A4611
:102A900000F01CF9019B099819461A4600F0FCF851
:102AA000019A029B0998114600F0F6F80998C0496E
:102AB0004018089A11795279114302221143034AAE
:102AC000FFF708FD0AB080BD01040000BFFF003021
:102AD00080B584B00390029103980299496800F090
:102AE00051F9029800780190222856D80198810067
:102AF00001A040588746C046912B00009B2B000048
:102B0000912B00009B2B00009B2B00009B2B0000B7
:102B10009B2B00009B2B00009B2B00009B2B00009D
:102B20009B2B00009B2B00009B2B00009B2B00008D
:102B30009B2B00009B2B0000852B00009B2B000093
:102B4000852B00009B2B00009B2B00009B2B000083
:102B50009B2B00009B2B00009B2B00009B2B00005D
:102B60009B2B00009B2B00009B2B00009B2B00004D
:102B70009B2B00009B2B0000852B00009B2B000053
:102B8000852B000003980121490700F0EDF805E0CE
:102B90000398002100F0E8F800E0FFE703980299AD
:102BA00009690022009200F0B1F8009B0398029995
:102BB000C9681A4600F052F802990878097A084361
:102BC00003997B4A885004B080BDC04681B0009014
:102BD0000099B64AB648885001B070470408000012
:102BE000030000B182B00190009100980199112278
:102BF0001202885002B0704780B584B003900291F1
:102C000001A802700399224A89180091017800985E
:102C10008900401800900098029907229204FFF75B
:102C200059FC04B080BDC04680B584B003900291C9
:102C300001A802700399074A891800910178009849
:102C400089004018009000980299034AFFF742FC5F
:102C500004B080BD70180000DB06C00F10B586B050
:102C600005900491039202A803700599084A8918F7
:102C70000191017801988900401801900198049908
:102C8000039A1143034AFFF725FC06B010BDC04666
:102C9000301800007777020010B586B005900491D7
:102CA000039202A8037005993122D201891801917B
:102CB0000178019889004018019001980499039ABD
:102CC00011438F22FFF706FC06B010BD10B587B088
:102CD0000091044600980999069405900492039384
:102CE00002A801700699084A891801910178019893
:102CF00089004018019005980499084303990843F6
:102D00000199086007B010BD5018000084B003900E
:102D1000029101A802700399064A8918009101786E
:102D2000009889004018009002980099086004B04B
:102D30007047C0461018000082B0019000910098C2
:102D400000780199764A88500098407801990122CC
:102D500012038850009880780199024A885002B086
:102D60007047C0460C11000080B582B00190009100
:102D700001980F494018009903221207FFF7AAFB98
:102D800002B080BD82B00190009100980199024A82
:102D9000885002B07047C0460818000081B000900B
:102DA0000099034A885801231843885001B070479E
:102DB0000418000081B00090009911200202885888
:102DC00001239843885001B0704781B0009000996A
:102DD00011200202885801231843885001B070471F
:102DE00082B001900091009B0199034A88581843D2
:102DF000885002B07047C0462810000081B0009093
:102E000000990120C2020248885001B07047C046B4
:102E10000100002681B000900098812149014058AE
:102E2000C0B201B07047000080B582B0019000913F
:102E30000198FFF7BFFF0198112109024018009A7D
:102E400011889378194392881143084AFFF72EFBA3
:102E500001982A494018009A9179D3791943127A36
:102E600011437E22FFF722FB02B080BD18670200EB
:102E700081B000900098034940580121084001B0FA
:102E80007047C0460811000081B0009000980249C8
:102E90004058C0B201B070472411000081B00090CA
:102EA0000099024A0248885001B0704704080000A7
:102EB000030000B180B584B00390029101920398A1
:102EC0000B49401802990B4AFFF7DCFA03980A49AC
:102ED000401801993F22FFF7D5FA0399074A88184D
:102EE000895801221140FFF7CDFA04B080BDC046D9
:102EF00010110000FFFF0000141100000411000079
:102F000082B001900091009800780199044A88509D
:102F100000984078019901221203885002B070474E
:102F20000810000080B582B0019000910198112135
:102F30000902401800990322D203FFF7A3FA02B056
:102F400080BD82B0019068460170007801998922A5
:102F50005201885002B0704780B586B00590049148
:102F6000049805998863059903918869896B009194
:102F700002F0FCFF0399024600980292CA6901928E
:102F8000C96B03F04BF80146019802F0EFFF0146D0
:102F9000029802F051FF039948620599886BC86353
:102FA0000599486A886206B080BD000080B586B089
:102FB0000590049104985021405C032809D1FFE753
:102FC000049950220020885404980599FFF7C4FF03
:102FD000FFE7049950220092885C401C88540498B2
:102FE0000390816A0291406A03F018F80099024642
:102FF00003980192405CFDF775FE0146019802F0CE
:10300000B5FF0749FDF774FD0146029802F014FF71
:1030100003994862049800F005F806B080BDC046E8
:103020000000404080B58EB00D900D980490406A2D
:10303000039047480068474902F098FF014603980B
:1030400002F0FAFE0499C8620D9908910869C96AEC
:10305000059102F08BFF08990246059807924A698C
:103060000692096B02F0DAFF0146069802F07EFF35
:103070000146079802F0E0FE089948640D99086B34
:1030800048630D99C86A08630D998868C8600D99EE
:10309000486888600D99086848600D99486C086018
:1030A0000D980C9000682C4902F060FF01460C98C6
:1030B00009914068294902F059FF0146099802F038
:1030C000BBFE01460C980A918068254902F04EFF2C
:1030D00001460A9802F0B0FE01460C980B91C068B8
:1030E000204902F043FF01460B9802F0A5FE0C991F
:1030F00048640D99486C88640D98406C1A49C96CF5
:1031000002F059FE002804D1FFE71748C06C029076
:1031100019E00D98406C1449C96C0122D207514046
:1031200002F03EFE002807D1FFE70F48C06C0121E6
:10313000C9074840019003E00D98406C0190FFE7FB
:1031400001980290FFE702980D9948640EB080BD87
:1031500090002020000080BDCDCC4C3FCDCCCC3D9C
:10316000295C8F3D8FC2F53C6C01202080B582B078
:103170008720C103BE48FFF745FA019001A84078B7
:103180000006002813D5FFE701200104B848FFF727
:10319000A3FA002805D1FFE72F490888401C0880C2
:1031A00004E02D490888401E0880FFE719E001A8C7
:1031B0008078C007002813D0FFE70120C103AC4886
:1031C000FFF78AFA002805D1FFE723490888401E47
:1031D000088004E020490888401C0880FFE7FFE7DA
:1031E000FFE701A880788007002813D5FFE70120BA
:1031F00081059F48FFF770FA002805D1FFE71749BE
:103200000888401E088004E014490888401C088093
:10321000FFE719E001A880784006002813D5FFE7F2
:10322000012041049248FFF757FA002805D1FFE733
:103230000A490888401C088004E008490888401EA4
:103240000880FFE7FFE7FFE78720C1038848FFF713
:1032500075F902B080BDC04636012020340120201F
:1032600070B594B00020139012903F4A06A978CA16
:1032700078C178CA78C178CA78C105A908700B20CE
:103280000870FFE705A8007806281FDBFFE705A800
:1032900001787648405CC007002811D0FFE705A8F8
:1032A000017804917148405C01210840FDF71AFD46
:1032B00004998A0006A9895802F058FE129005E088
:1032C000FFE70598401E05A90870DBE705A9002067
:1032D0000870FFE705A8007805281FDCFFE705A8B0
:1032E00001786248405CC007002811D0FFE705A8BC
:1032F000017803915D48405C01210840FDF7F2FC34
:1033000003998A0006A9895802F030FE139005E05F
:10331000FFE70598401C05A90870DBE71398129990
:1033200002F07CFE114902F046FD002803D1FFE7C0
:103330000E48029015E01398129902F06FFE0C49A6
:1033400002F02EFD002803D1FFE70948019005E0B7
:103350001398129902F062FE0190FFE70198029023
:10336000FFE7029814B070BD486200000000C84238
:103370000000C8C210B586B03B4802900421FFF798
:1033800095F9014602984A1E9141384A05921170FA
:10339000012101918904FFF789F90599421E9041A5
:1033A0004870334804908021FFF780F90199059B0C
:1033B00002460498541EA2419A708903FFF776F9D9
:1033C0000199059B02460298541EA241DA70C90475
:1033D000FFF76CF9059A014602984B1E994111714D
:1033E0000821FFF763F90199059B02460298541ED4
:1033F000A2415A7109060391FFF758F90199059BFB
:1034000002460498541EA2419A718906FFF74EF9AC
:103410000199059B02460298541EA241DA71C90324
:10342000FFF744F90199059B02460298541EA241F8
:103430001A720904FFF73AF9059A014602984B1EE1
:10344000994151721021FFF731F90399059B02460A
:103450000498541EA2419A72FFF728F90599421E5A
:103460009041C87206B010BD00200A4081002020A3
:1034700000000A4080B58AB009A9088008A9002088
:10348000088007A9088006A9088005A9088004A962
:103490000880FFE704A8008809A90988884229DA7A
:1034A000FFE75F48039002F067F8012000F078FE24
:1034B00003980421405E01280BDBFFE75848818810
:1034C0000898401808A908800698401C06A908809A
:1034D0000AE0534881880798401807A90880059892
:1034E000401C05A90880FFE7FFE70498401C04A9D9
:1034F0000880CFE708A8008800B2FDF7F3FB009032
:1035000006A80088FDF7EEFB01460098FDF7F0FAEB
:1035100044490291C86007A8008800B2FDF7E2FBA9
:10352000019005A80088FDF7DDFB01460198FDF735
:10353000DFFA029908610AB080BDC04680B58AB042
:10354000002009903648089002F016F808980421E7
:10355000405E01280BDBFFE731480421405EFDF7A8
:10356000C1FB3049C96802F059FD07900AE02C48B8
:103570000421405EFDF7B6FB2A49096902F04EFDC1
:103580000790FFE707980990264806900068FDF726
:1035900085FA254A0392254BFDF75CF904900591C5
:1035A0000998FDF77BFA039A214BFDF753F9024680
:1035B00004980B460599FDF7F1F8FCF735FF014635
:1035C00006980160007D01214840002804D0FFE7F3
:1035D00014490020486020E01248029000687B21D6
:1035E000C90502F0C3FC0146029881608068FDF7BE
:1035F00055FA104A104BFDF72DF902460298009239
:1036000001914068FDF74AFA009A019BFDF7C6F860
:10361000FCF70AFF02994860FFE70AB080BDC04688
:1036200060012020900020209A9999999999C93F8A
:103630009999E93F7B14AE47E17A843F10B586B093
:1036400054480078032806DCFFE753480078002838
:1036500001D0FFE79CE04F490020087002F0C2F95A
:10366000014605A8017002784C490C781346634066
:103670001A4003AB1A7002780B78104658409043FA
:1036800004AA10700598087045480088FF212E3163
:10369000884205DBFFE743480121FEF75DFF04E0B8
:1036A00040480121FFF73AF8FFE703A80078002817
:1036B00004D0FFE73A4900200880FFE704A800781B
:1036C000002865D0FFE738491E200870344800887C
:1036D000FF212E3188422ADBFFE704A80078C01EB4
:1036E0000290042822D80298810001A04058874601
:1036F000053700000D370000153700001D370000AA
:10370000253700002449012008700FE022490520D8
:1037100008700BE020490620087007E01E490720CA
:10372000087003E01C4909200870FFE72FE004A897
:103730000078C01E0190052828D80198810001A0BA
:10374000405887465D370000653700006D37000040
:10375000753700007D370000853700000E490120D5
:10376000087013E00C49022008700FE00A4903209A
:1037700008700BE008490420087007E0064908209B
:10378000087003E004490A200870FFE7FFE7FFE73D
:1037900006B010BD6A012020A9002020A80020202A
:1037A0000000202000000A408000202080B586B064
:1037B000024605A802700491007801280DD1FFE7A8
:1037C00001200290410483480390FEF7BBFF029959
:1037D00003980903FEF7D4FE0CE001200090410499
:1037E0007C480190FEF7CCFE009901980903FEF792
:1037F000A9FFFFE7049978480022FFF787FA06B08F
:1038000080BDC04680B58CB00B900B998888C8806D
:103810000B9908884A88801A88800B990991086951
:1038200005900420085E06900622895E401AFDF786
:1038300059FA0146059802F099FB09990246069843
:10384000089249690791FDF74DFA0146079802F081
:103850008DFB0146089802F0EFFA0146099880684E
:1038600002F0EAFA099988600B9881680A91182198
:10387000405EFDF737FA01460A9802F09CFA0028EC
:1038800007D1FFE70B981821405EFDF72BFA049053
:103890001DE00B98816803911821405E4042FDF7BE
:1038A00021FA0146039802F07BFA002808D1FFE7CD
:1038B0000B981821405E4042FDF714FA029003E095
:1038C0000B9880680290FFE702980490FFE7049845
:1038D0000B9988600B9801908068FDF7B9F9019900
:1038E00088810CB080BD000080B582B0014601A87F
:1038F000017000780090072844D80098810001A04A
:1039000040588746793900002539000031390000D8
:103910003D39000049390000553900006139000087
:103920006D39000001200022114602F0B3F929E0B0
:1039300001210022104602F0ADF923E0002101220E
:10394000084602F0A7F91DE001210022084602F016
:10395000A1F917E000210122104602F09BF911E0C5
:1039600000200122114602F095F90BE001221046D9
:10397000114602F08FF905E000221046114602F0D0
:1039800089F9FFE702B080BD80B584B0024603A884
:1039900002700291007801280AD1FFE7A348019044
:1039A0000121FEF7EDFD01988021FEF7CBFE09E035
:1039B0009E4800900121FEF7C5FE00988021FEF789
:1039C000DFFDFFE70299BC480122FFF79FF904B031
:1039D00080BDC04600200A400000874080B58CB002
:1039E0001D2004210191FEF753FE0120099041039F
:1039F0008E480A90FEF7F0FD01993620FEF748FE4A
:103A0000099841068A480690FEF7E6FD1420022137
:103A10000391FEF73DFE03991520FEF72BFE2120B2
:103A200003210291FEF734FE02991320FEF730FEC7
:103A300002992220FEF71EFE02990620FEF728FEBC
:103A40001220FEF70DFE3B20FEF70AFE0998002328
:103A5000059300934204049230201946FEF7E8FDD6
:103A6000059B09980093020427201946FEF7E0FD04
:103A7000049A059B009318201946FEF7D9FD049A75
:103A8000059B009319201946FEF7D2FD049A059B69
:103A900000931B201946FEF7CBFD049A059B00936B
:103AA0002F201946FEF7C4FD0398049A059B009346
:103AB0001946FEF7BDFD049A059B009305201946A3
:103AC000FEF7B6FD1C20FEF7CBFD2A20FEF7C8FD51
:103AD0000B20FEF7C5FD1720FEF7C2FD049A059BDB
:103AE00000930E201946FEF7A3FD049A059B009350
:103AF0002B201946FEF79CFD049A059B00930D2090
:103B00001946FEF795FD049A059B0093232019465C
:103B1000FEF78EFD049A059B00932C201946FEF7B4
:103B200087FD049A059B00930F201946FEF780FD40
:103B3000049A059B009333201946FEF779FD049AF9
:103B4000059B00933A201946FEF772FD049A059BE7
:103B500000931F201946FEF76BFD049A059B009306
:103B600020201946FEF764FD049A059B009310205F
:103B70001946FEF75DFD049A059B00933520194612
:103B8000FEF756FD0598FEF76BFD3820FEF768FD41
:103B90003920FEF765FD3120FEF762FD2E20FEF78D
:103BA0003DFD2620FEF73AFD2520FEF737FD2420B7
:103BB000FEF734FD06980999C906FEF7D7FC06986A
:103BC000FF210231FEF7B4FD06981A49FEF704FD05
:103BD000069809998907FEF793FD06981649FEF79E
:103BE000D1FD06988721C9030791FEF79BFC069833
:103BF0000799FEF7E3FC0A9810490891FEF7B6FC16
:103C000008990A98FEF7E8FC09990A988902FEF7D4
:103C1000B9FD09990A9849050B91FEF783FC0A98AA
:103C20000B99FEF7CBFC0CB080BDC04600200A40CB
:103C300000000A4001010008051000008110420C3C
:103C400080B584B01B4981480390FFF775F803984D
:103C50001A49FEF7B7FE0398002301930093194613
:103C60001A46FFF733F8019A03981146FEF7C4FF8E
:103C7000019A0398FF214031FFF748F8019B039810
:103C800001210291009119461A46FFF71FF8019988
:103C9000029A0398FEF7B0FF029A03980849FFF7CB
:103CA00035F80398FEF76AFE03980321FEF79AFFA2
:103CB00004B080BD78620000000087407C62000094
:103CC0007F02000080B582B00B4962480190FEF788
:103CD000D1FD01980949FEF777FD01980221009175
:103CE000FEF7B8FD009A01981021FEF7D5FD019866
:103CF000FEF754FD02B080BD8462000086620000C1
:103D000080B582B000200190FEF704FE0198FEF716
:103D10000DFEFEF7E5FDFEF7E9FDFEF7F1FD02B051
:103D200080BD80B52020FEF715FEFEF70DFE80BD9C
:103D300080B582B0084946480190FEF7FDFF019822
:103D40000649FEF7C5FE01980121FEF721FE019804
:103D5000FEF714FE02B080BD906200009462000085
:103D600080B582B01049B6480190FFF7C9F80198B4
:103D70000E49FFF759F801980021FFF7D3F8019891
:103D800002210B22FFF796F8019801210091890288
:103D9000FFF726F800990F2000F09AF90198FFF735
:103DA00014F802B080BDC046A8620000AA620000FC
:103DB00080B500F015F8FFF711FEFFF7A1FFFFF740
:103DC0003FFFFFF7B5FFFFF7CBFFFFF77BFFFFF7E5
:103DD000A8FF024924220020885480BD38012020F9
:103DE00080B586B017480090FEF782FC1648019017
:103DF000FEF77EFC15480290FEF7E8FE144803909B
:103E0000FEF7E4FE8E480490FFF748F8114805904D
:103E1000FEF714FD0098FEF7EBFB0198FEF7E8FBB8
:103E20000298FEF7C3FD0398FEF7C0FD0498FEF765
:103E3000E5FF0598FEF7BCFC1020FEF719FB06B065
:103E400080BDC04600000A4000200A4000008740B4
:103E5000004008400080464010B588B007A9002007
:103E60000880264A138826490C881B1906AC238033
:103E70001080088005A909200870FFE705A80078D0
:103E8000012815DBFFE705A90A781E485300C21870
:103E9000921E1288C25209784900415A0798401868
:103EA00007A90880FFE70598401E05A90870E5E707
:103EB00006991448018001880798411807A80490C2
:103EC0000180008800B2FCF7BAFC0F4A0F4BFCF7E8
:103ED000C1FC01900291E84803900068FCF7DEFD08
:103EE000019A029BFCF75AFCFCF79EFA039A0146E2
:103EF00004981160008800B208B010BD3401202081
:103F000036012020C800202079E9263108AC8C3FFA
:103F100080B582B0FFF712FBFFF72CFAFFF79CFF8A
:103F20002D494880F248007801900A283BD8019832
:103F3000810001A040588746653F00006B3F0000AC
:103F4000713F0000773F00007D3F0000833F00008D
:103F5000893F00008F3F0000953F00009B3F00001D
:103F6000A13F000000F078F91DE000F087F91AE0A9
:103F700000F0C0F917E000F051FB14E000F0FAFC8B
:103F800011E000F077FA0EE000F01EFC0BE000F00C
:103F900001FE08E000F0E4FE05E000F0D5FF02E0DD
:103FA00001F0CAF8FFE7FEF741FA0C4800786328F1
:103FB00005DCFFE709490878401C0870FFE708485E
:103FC00000880849884205DCFFE705490888401C4D
:103FD0000880FFE702B080BDAC0020206A012020ED
:103FE00000002020571B000080B582B001A90020EE
:103FF00008709848FEF70EFF0B281ED1FFE7954882
:10400000FEF742FF01A908700E4800887E280CDCEC
:10401000FFE701980B4B1A88511C19800A498854F4
:1040200001A8007801F078FE03E00649002008802E
:10403000FFE706490120087000E0FFE702B080BDFD
:10404000008010404A022020C80120204802202081
:1040500081B0014668460170007840B2002809D45A
:10406000FFE7684601781F2001400120884002498F
:104070000860FFE701B0704780E200E081B00146D0
:1040800068460170007840B2002809D4FFE768460E
:1040900001781F200140012088400C490860FFE79B
:1040A00001B0704781B0014668460170007840B2A7
:1040B000002809D4FFE7684601781F20014001204D
:1040C000884002490860FFE701B0704700E100E066
:1040D00070B582B0024601A802700091007840B22B
:1040E000002817D4FFE701A9087840B20322D34380
:1040F0001840184A8058097849B28C07E50EFF2409
:10410000AC40A043009CA401E4B2AC402043194061
:1041100088501AE001A908780F24204008380322AB
:10412000D34318400A4A8058097849B28D07EE0EE9
:10413000FF25B540A843009DAD01EDB2B540284331
:104140002140083919408850FFE702B070BDC046D1
:104150001CED00E000E400E081B0009001B0704789
:1041600080B582B0FFF724FE0F200190FFF770FFAB
:104170000198FFF797FF0248FCF78EF802B080BD68
:10418000D882000010B584B0069C03AC207002A851
:1041900001700192009300784142484104B010BD83
:1041A00080B582B0019001997D20C000484300F0A5
:1041B00003F802B080BD000085B004902620009076
:1041C000049840010390174800680290FFE71548E3
:1041D000006801900198029988421FD0FFE701987A
:1041E0000299884207D2FFE702980199411A009884
:1041F0004018009009E00C4800680199401A0299A3
:104200004118009840180090FFE70198029000982C
:104210000399884201D3FFE701E0FFE7D7E705B044
:104220007047C04618E000E014E000E080B582B0BE
:1042300001900091FFE70748FEF71AFE002801D021
:10424000FFE7F8E701A801780248FEF77AFE019837
:1042500002B080BD0080104080B582B00021019185
:10426000084601F081FC0198E1490870E74948607F
:10427000E149086002B080BDDC00202080B584B038
:10428000E248012101754068C9074840E1490091B1
:10429000FEF78CFE0098416C0291DF48019001F01E
:1042A000BDFEFCF7D5FC019902460298039201F08D
:1042B000C3FDFCF7CDFC0146039801F055FC01F06D
:1042C00025FB032811D0FFE7CB480068CB4901F05C
:1042D00072FD002809D1FFE7C94900200870C94ACA
:1042E0001E211170C4490860FFE704B080BDC046BC
:1042F000A900202080B586B0BD480078059003282D
:1043000000D992E00598810001A040588746C04638
:104310002143000063430000A9430000E94300007B
:10432000BA48012101754068C9074840B149086091
:1043300001F0ECFA032813D0FFE7AF480068AF495B
:1043400001F039FD00280BD1FFE7A9490878401C8E
:104350000870AC491E200870A74900200860FFE7DC
:1043600063E001F0D3FA032818D1FFE7A248006800
:10437000A24901F020FD00280BD1FFE79C490878F5
:10438000401C08709F491E2008709B49002008604F
:10439000FFE79D4800689749086004E0FEF760FF6A
:1043A00094490860FFE740E098484168304801F0D0
:1043B00035FE9049086001F0A9FA032813D0FFE701
:1043C0008D4800688D4901F0F6FC00280BD1FFE70D
:1043D000F1490878401C0870F4491E200870F04923
:1043E00000200860FFE720E001F090FA032816D1D2
:1043F000FFE7EB480068EB4901F0DDFC002809D13C
:10440000FFE7E94900200870E84A1E211170E449DD
:104410000860FFE7E6480068E049086004E0FEF74E
:104420001FFFDE490860FFE7FFE7DC4804900068F3
:10443000E3490091FEF7BAFD0098416C0291E14812
:10444000019001F0EBFDFCF703FC01990246029894
:10445000039201F0F1FCFCF7FBFB0146039801F02D
:1044600083FB04980068D249086006B080BDC0464E
:10447000000039C380B586B0C7480078059003288E
:1044800000D992E00598810001A040588746C046B7
:10449000A1440000E34400002945000069450000F4
:1044A000C448012101754068C9074840BB490860FC
:1044B00001F02CFA032813D0FFE7B9480068B94986
:1044C00001F079FC00280BD1FFE7B3490878401CC4
:1044D0000870B6491E200870B14900200860FFE747
:1044E00063E001F013FA032818D1FFE7AC48006835
:1044F000AC4901F060FC00280BD1FFE7A649087821
:10450000401C0870A9491E200870A54900200860B9
:10451000FFE7A7480068A149086004E0FEF7A0FE95
:104520009E490860FFE740E0A2484168384801F032
:1045300075FD9A49086001F0E9F9032813D0FFE7F7
:1045400097480068974901F036FC00280BD1FFE737
:10455000FC490878401C087094491E200870FB49EB
:1045600000200860FFE720E001F0D0F9032816D111
:10457000FFE7F6480068F64901F01DFC002809D164
:10458000FFE7F44900200870F34A1E211170EF493B
:104590000860FFE7F1480068EB49086004E0FEF7B7
:1045A0005FFEE9490860FFE7FFE7E748049000681D
:1045B000EE490091FEF7FAFC0098416C0291EC483C
:1045C000019001F02BFDFCF743FB01990246029894
:1045D000039201F031FCFCF73BFB0146039801F02C
:1045E000C3FA04980068DD49086006B080BDC04683
:1045F000AA002020C0012020DC002020008054449C
:10460000A900202080002020C4012020900020202C
:10461000000039436C0120200000484480B586B07A
:10462000C84800780590032800D993E005988100D8
:1046300001A040588746C046494600008D4600000C
:10464000D346000013470000C548012101754168A9
:104650005A4801F0E3FCBC49086001F057F9012811
:1046600013D1FFE7B9480068B94901F0A4FB00285D
:104670000BD1FFE7B3490878401C0870B6491E20EB
:104680000870B24900200860FFE763E001F03EF9DE
:10469000032818D1FFE7AD480068AD4901F08BFB56
:1046A00000280BD1FFE7A7490878401C0870AA49E9
:1046B0001E200870A54900200860FFE7A748006891
:1046C000A149086004E0FEF7CBFD9F490860FFE7C1
:1046D00040E0A3484168384801F0A0FC9A490860CE
:1046E00001F014F9022813D1FFE7984800689849AF
:1046F00001F061FB00280BD1FFE792490878401CCC
:10470000087095491E200870904900200860FFE756
:1047100020E001F0FBF8032816D1FFE78B48006882
:104720008B4901F048FB002809D1FFE789490020A7
:104730000870894A1E21117084490860FFE7874884
:1047400000688149086004E0FEF78AFD7E49086040
:10475000FFE7FFE77C480090006884490191FEF77D
:1047600025FC0099019809687C4A1160416C03910D
:104770007F48029001F052FCFCF76AFA0299024667
:104780000398049201F058FBFCF762FA0146049882
:1047900001F0EAF906B080BDAA002020C001202067
:1047A000DC00202000805444A9002020800020202C
:1047B000C40120209000202000005F43000018C2A8
:1047C0006C0120200000484480B586B0E1480078A4
:1047D0000590032800D993E00598810001A0405876
:1047E0008746C046F5470000394800007F48000072
:1047F000BF480000DD480121017541685A4801F0B9
:104800000DFCD549086001F081F8012813D1FFE7BC
:10481000D2480068D24901F0CEFA00280BD1FFE758
:10482000CC490878401C0870D2491E200870CB493A
:1048300000200860FFE763E001F068F8032818D162
:10484000FFE7C6480068C64901F0B5FA00280BD159
:10485000FFE7C0490878401C0870C6491E20087050
:10486000BE4900200860FFE7C3480068BA490860F5
:1048700004E0FEF7F5FCB8490860FFE740E0BB48FC
:104880004168384801F0CAFBB349086001F03EF8BE
:10489000022813D1FFE7B1480068B14901F08BFA53
:1048A00000280BD1FFE7AB490878401C0870B149DC
:1048B0001E200870A94900200860FFE720E001F0F1
:1048C00025F8032816D1FFE7A4480068A44901F0A1
:1048D00072FA002809D1FFE7A34900200870A54A11
:1048E0001E2111709D490860FFE7A34800689A499E
:1048F000086004E0FEF7B4FC97490860FFE7FFE7B3
:10490000954800900068A0490191FEF74FFB00997F
:1049100001980968984A1160416C0391144802900B
:1049200001F07CFBFCF794F902990246039804928B
:1049300001F082FAFCF78CF90146049801F014F9B1
:1049400006B080BDAA002020C0012020DC0020206D
:1049500000805444A900202080002020C401202091
:104960009000202000005FC3000018426C0120204E
:104970000000484480B588B0EC48007807900328D0
:1049800000D9BAE00798810001A040588746C04688
:10499000A1490000F3490000394A0000794A0000AB
:1049A000EA48012101754068FCF778F802460B4699
:1049B00073487449FBF7FFFEFBF736FDDC490860DE
:1049C00000F0A4FF012813D1FFE7DA480068DA49B4
:1049D00001F0F1F900280BD1FFE7D4490878401C19
:1049E0000870D8491E200870D24900200860FFE7EF
:1049F00083E000F08BFF032818D1FFE7CD48006863
:104A0000CD4901F0D8F900280BD1FFE7C749087854
:104A1000401C0870CB491E200870C6490020086061
:104A2000FFE7C9480068C249086004E0FEF718FCC7
:104A3000BF490860FFE760E0C44841684F4801F0A3
:104A4000EDFABB49086000F061FF022813D1FFE7CF
:104A5000B8480068B84901F0AEF900280BD1FFE76B
:104A6000B2490878401C0870B6491E200870B14948
:104A700000200860FFE740E0FEF7F2FBAC49086069
:104A800000F044FF032832D1FFE7AA480068AA4992
:104A900001F091F9002825D1FFE7A4490020087012
:104AA00030490878401C0870C0B2042804DBFFE7D6
:104AB000A34900200870FFE7A44805904068FBF771
:104AC000EDFF002206922A4BFBF768FEFBF7ACFCD9
:104AD000059A0146069851609A4A1E21117095491F
:104AE0000860FFE7984800689149086004E0FEF715
:104AF000B7FB8F490860FFE7FFE797490191412025
:104B000002060A610120800748618A61C8618848FD
:104B100000900068FEF74AFA009800688A49086029
:104B20001A48FEF76FFE0198416C039118480290F5
:104B300001F074FAFCF78CF802990246039804928B
:104B400001F07AF9FCF784F80146049801F00CF8BA
:104B500008B080BDAA002020C0012020DC00202059
:104B60000080544466012020A900202090002020CD
:104B70000000E03F80002020C401202000006343AB
:104B80009A999999999943C06C012020AC002020F2
:104B90000000964480B586B0DE4800780590032872
:104BA00000D9A1E00598810001A040588746C04681
:104BB000C14B0000054C00004B4C00008B4C00002A
:104BC000DA48012101754168624801F027FAD249AB
:104BD000086000F09BFE022813D1FFE7CF48006871
:104BE000CF4901F0E8F800280BD1FFE7C949087860
:104BF000401C0870CF491E200870C849002008607A
:104C0000FFE771E000F082FE032818D1FFE7C348F8
:104C10000068C34901F0CFF800280BD1FFE7BD4978
:104C20000878401C0870C3491E200870BB4900204A
:104C30000860FFE7C0480068B749086004E0FEF775
:104C40000FFBB5490860FFE74EE0B84841684048AF
:104C500001F0E4F9B049086000F058FE012813D1D2
:104C6000FFE7AE480068AE4901F0A5F800280BD177
:104C7000FFE7A8490878401C0870AE491E2008705C
:104C8000A64900200860FFE72EE0FEF7E9FAA249F6
:104C9000086000F03BFE032820D1FFE79F48006832
:104CA0009F4901F088F8002813D1FFE799490020B7
:104CB0000870224A1078411CC8B21170042804D12F
:104CC000FFE7994900200870FFE79A491E20087005
:104CD000FFE7994800689049086004E0FEF7C0FAD1
:104CE0008D490860FFE7FFE78B4800900068954911
:104CF0000191FEF75BF90099019809688E4A1160ED
:104D0000416C03911548029001F088F9FBF7A0FF70
:104D1000029902460398049201F08EF8FBF798FF7F
:104D20000146049800F020FF06B080BDAA002020B4
:104D3000C0012020DC002020008054446701202096
:104D4000A900202080002020C401202090002020E5
:104D5000000061C3000018426C01202000007A446A
:104D600080B588B0E54800780790032800D9AEE008
:104D70000798810001A040588746C0468D4D00002D
:104D8000D14D0000174E0000574E0000E1480121B0
:104D9000017541686A4801F041F9D949086000F09D
:104DA000B5FD012813D1FFE7D6480068D64901F0C8
:104DB00002F800280BD1FFE7D0490878401C0870A2
:104DC000D7491E200870CF4900200860FFE77EE029
:104DD00000F09CFD032818D1FFE7CA480068CA49C3
:104DE00000F0E9FF00280BD1FFE7C4490878401C18
:104DF0000870CB491E200870C24900200860FFE7F8
:104E0000C8480068BE49086004E0FEF729FABC49BA
:104E10000860FFE75BE0BF484168484801F0FEF8E2
:104E2000B749086000F072FD022813D1FFE7B548CA
:104E30000068B54900F0BFFF00280BD1FFE7AF497C
:104E40000878401C0870B6491E200870AD49002043
:104E50000860FFE73BE0FEF703FAA949086000F0AD
:104E600055FD03282DD1FFE7A6480068A64900F0AC
:104E7000A2FF002820D1FFE7A0490020087029499F
:104E80000878401C0870C0B2042804DBFFE7A04982
:104E900000200870FFE79F4806904068FBF7FEFD82
:104EA0009D4A234BFBF77AFCFBF7BEFA0699486054
:104EB0009B491E200870FFE79A48006890490860E7
:104EC00004E0FEF7CDF98E490860FFE7FFE78C4864
:104ED0000190006896490291FEF768F801990298DE
:104EE0000968904A1160416C04919248039001F066
:104EF00095F8FBF7ADFE039902460498059200F081
:104F00009BFFFBF7A5FE0146059800F02DFE08B0BB
:104F100080BDC046AA002020C0012020DC00202047
:104F20000080544468012020A90020209000202007
:104F30009999B93F80002020C401202000006143DE
:104F4000000018C26C01202080B588B0E1480078CC
:104F50000790032800D9AEE00798810001A04058CF
:104F60008746C046754F0000B94F0000FF4F000054
:104F70003F500000DB480121017541686B4801F09A
:104F80004DF8D549086000F0C1FC022813D1FFE7B5
:104F9000D2480068D24900F00EFF00280BD1FFE78D
:104FA000CC490878401C0870D1491E200870CB49B4
:104FB00000200860FFE77EE000F0A8FC032818D17D
:104FC000FFE7C6480068C64900F0F5FE00280BD18F
:104FD000FFE7C0490878401C0870C5491E200870CA
:104FE000BE4900200860FFE7C2480068BA4908606F
:104FF00004E0FEF735F9B8490860FFE75BE0B9481F
:105000004168494801F00AF8B349086000F07EFCA5
:10501000012813D1FFE7B1480068B14900F0CBFE89
:1050200000280BD1FFE7AB490878401C0870B04955
:105030001E200870A94900200860FFE73BE0FEF74A
:105040000FF9A549086000F061FC03282DD1FFE7A6
:10505000A2480068A24900F0AEFE002820D1FFE778
:105060009C4900200870294A1078411CC8B2117070
:10507000042804D1FFE7264900200870FFE799487B
:1050800006904068FBF70AFD234A244BFBF786FB9A
:10509000FBF7CAF90699486095491E200870FFE79A
:1050A000944800688C49086004E0FEF7D9F88A4902
:1050B0000860FFE7FFE78848019000689049029187
:1050C000FDF774FF0199029809688A4A1160416CE2
:1050D00004918C48039000F0A1FFFBF7B9FD039900
:1050E00002460498059200F0A7FEFBF7B1FD0146C9
:1050F000059800F039FD08B080BDC046AA00202008
:10510000C0012020DC0020200080544469012020C0
:10511000A9002020900020209A9999999999C93F37
:1051200080002020C4012020000061C3000018423C
:105130006C0120200000484480B588B065480078A4
:105140000790032800D9A2E00798810001A04058E9
:105150008746C04665510000A9510000EF5100008C
:105160002F5200005F48012101754168634800F03B
:1051700055FF5949086000F0C9FB012813D1FFE72A
:1051800056480068564900F016FE00280BD1FFE78C
:1051900050490878401C087055491E2008704F4936
:1051A00000200860FFE772E000F0B0FB032818D190
:1051B000FFE74A4800684A4900F0FDFD00280BD18E
:1051C000FFE744490878401C087049491E200870D0
:1051D000424900200860FFE7464800683E490860F1
:1051E00004E0FEF73DF83C490860FFE74FE03D482A
:1051F0004168414800F012FF3749086000F086FB23
:10520000022813D1FFE735480068354900F0D3FD87
:1052100000280BD1FFE72F490878401C087034495B
:105220001E2008702D4900200860FFE72FE0FEF7E0
:1052300017F82949086000F069FB032821D1FFE72E
:1052400026480068264900F0B6FD002814D1FFE783
:10525000204900200870234806904068FBF71EFC98
:10526000214A224BFBF79AFAFBF7DEF806994860D1
:105270001F491E200870FFE71E4800681649086095
:1052800004E0FDF7EDFF14490860FFE7FFE712486F
:10529000019000681A490291FDF788FE0199029871
:1052A0000968144A1160416C04911648039000F09B
:1052B000B5FEFBF7CDFC039902460498059200F079
:1052C000BBFDFBF7C5FC0146059800F04DFC08B09E
:1052D00080BDC046AA002020C0012020DC00202084
:1052E0000080544490002020333333333333D33F92
:1052F00080002020C401202000006143000018C26B
:105300006C0120200000484410B584B0039002A92D
:105310000020087069460880FFE76A461088411C33
:1053200011800B2804DBFFE702A9032008701EE0B0
:1053300003980078002808D1FFE703988469692062
:10534000802101AA0223A04707E00398426969204F
:105350000021904701A94870FFE7039841680120A8
:105360008847FFE701A840782428D6D1FFE702A8A4
:10537000007804B010BD000010B586B0059004910F
:1053800003A900200870FFE7059884680498411E6F
:10539000884116499D4A6123A047002804D0FFE7B1
:1053A00003A9012008701DE005980078002808D1A5
:1053B000FFE7059884696920922101AA0723A04785
:1053C00008E00598846901A8421C6920122106237F
:1053D000A047FFE701A9887900024979401804999C
:1053E0008880FFE703A8007806B010BDF7820000B0
:1053F00010B588B0079006A900200870FFE707984D
:10540000C368692001907C21002204929847079884
:1054100041680120039088470198049A0799CB6856
:1054200059210291984701980399079A14694C4AA7
:105430004B035E21A04701980299039A079BDB6802
:1054400098470798416814208847049805A9088060
:1054500007980078002808D1FFE707988469692039
:10546000A12105AA0223A04707E007984269692005
:105470002121904705A94870FFE70798846805A88F
:105480004078401E414248413649604A83235B00D0
:10549000A047002804D0FFE706A9052008705AE0BD
:1054A0000798C36869207D210E2298470798846871
:1054B0002D49564AFF2314330120A047002804D069
:1054C000FFE706A90620087045E00798C368692031
:1054D0004021A72298470798846824494B4A8F2087
:1054E00043000120A047002804D0FFE706A90820B8
:1054F000087030E00798C36869204221A9229847C4
:10550000079884681A49414A972043000120A04720
:10551000002804D0FFE706A9072008701BE00798C1
:10552000C36869204121022298470798846811497D
:10553000364AFF2340330120A047002804D0FFE76C
:1055400006A90920087006E00798C368692043216E
:1055500000229847FFE706A8007808B010BDC046B3
:10556000B4620000108300008F830000BB83000042
:10557000428300006883000080B582B001900199E9
:105580002348FFF7F9FE02B080BDC04680B582B067
:1055900001A900200870142000F05CF8FFE700F07B
:1055A0006EF8414248411849184AFF23E23300F09F
:1055B00033F8002804D0FFE701A90220087017E0A3
:1055C0001348FFF7A1FE4142484112490F4AF52313
:1055D0005B0000F021F8002804D0FFE701A90420B7
:1055E000087005E00A48FFF703FF01A90870FFE70C
:1055F00001A80078002803D0FFE700F033F8FFE7A8
:1056000001A8007802B080BDE88300000284000099
:10561000040020202783000010B586B0044605A8AA
:1056200004700491039202930078002803D0FFE7EE
:10563000002001900AE005A80178049A039B0298D3
:1056400000900220FEF79EFD0190FFE70198C0B296
:1056500006B010BD80B582B001900198FEF7A0FDA4
:1056600002B080BD81B0694601200870FFE769463D
:1056700000200870FFE76846007801B0704781B0ED
:10568000694601200870FFE7694600200870FFE7BF
:105690006846007801B0704780B584B003AA1070E6
:1056A00002A80090017001A90020087001200102E9
:1056B0009448FCF779FF009801789348FDF704F9C6
:1056C000FFE79148FDF7A4F8002801D0FFE7F8E7CD
:1056D0008D48FDF7A9F8FFE78B48FDF799F80028FA
:1056E00001D0FFE7F8E78848FF21FDF7EDF8FFE775
:1056F0008548FDF78DF8002801D0FFE7F8E78248DC
:10570000FDF792F801A90870FFE77F48FDF780F8E0
:10571000002801D0FFE7F8E701200102E948FDF782
:1057200025F801A8007804B080BDC04610B586B049
:1057300005AC207004A80090017003920293012030
:105740000102E048FCF730FF009801786E48FDF751
:10575000BBF8FFE76C48FDF75BF8002801D0FFE7D6
:10576000F8E76948FDF760F8FFE76748FDF750F88C
:10577000002801D0FFE7F8E700200190FFE702983A
:10578000019988421ED9FFE75F48FF21FDF79CF889
:10579000FFE75D48FDF73CF8002801D0FFE7F8E798
:1057A0005948FDF741F80399019A8854FFE7564894
:1057B000FDF72EF8002801D0FFE7F8E70198401C1C
:1057C0000190DCE701200102E448FCF7CFFF06B0BE
:1057D00010BDC04680B584B003AB187002A800901D
:1057E000017001A8027001200102DC48FCF7DCFE18
:1057F000009801784448FDF767F8FFE74248FDF755
:1058000007F8002801D0FFE7F8E73F48FDF70CF85C
:10581000FFE73D48FCF7FCFF002801D0FFE7F8E771
:1058200001A801783848FDF74FF8FFE73648FCF744
:10583000EFFF002801D0FFE7F8E73348FCF7F4FF5B
:10584000FFE73148FCF7E4FF002801D0FFE7F8E765
:1058500001200102C148FCF789FF04B080BDC046A9
:1058600010B586B005AC207004A8009001700392BA
:10587000029301200102B948FCF796FE00980178D6
:105880002148FDF721F8FFE71F48FCF7C1FF00287A
:1058900001D0FFE7F8E71C48FCF7C6FFFFE71A480E
:1058A000FCF7B6FF002801D0FFE7F8E700200190E1
:1058B000FFE70298019988421DD9FFE703980199F3
:1058C000415C1148FDF700F8FFE70F48FCF7A0FF27
:1058D000002801D0FFE7F8E70B48FCF7A5FFFFE73A
:1058E0000948FCF795FF002801D0FFE7F8E7019889
:1058F000401C0190DDE7012001029848FCF736FFCB
:1059000006B010BD00000A400080464070B586B069
:1059100004AD0021298003AA118002A80180304B28
:10592000009319780124019421405E78264089195A
:105930009E7826408919DE78264089191E792640EE
:1059400089195E79264089192980D97A21409D7A62
:10595000254049195D7A254049191D7A2540491984
:10596000DD79254049199B792340C9181180049994
:10597000039A891A0180008800B2012804DBFFE73E
:1059800005A90120087026E002A8008800B20028BE
:1059900004D5FFE705A9022008701CE002A80088D2
:1059A00000B2002811D1FFE704A8008800B2002847
:1059B0000AD1FFE703A8008800B2002804D1FFE75E
:1059C00005A90320087006E0FFE7FFE7FFE705A948
:1059D00000200870FFE705A8007806B070BDC0463B
:1059E0008100202080B582B001A90020087001202C
:1059F0004105C848FCF765FE002804D1FFE701A96E
:105A0000012008705AE0012081045448FCF759FE37
:105A1000002804D0FFE701A9022008704DE0012012
:105A20000102BC48FCF74DFE002804D1FFE701A9A4
:105A30000320087040E001204102B648FCF741FE17
:105A4000002804D1FFE701A90420087033E00120F9
:105A5000C102B048FCF735FE002804D1FFE701A9D8
:105A60000520087026E001200105AA48FCF729FE60
:105A7000002804D1FFE701A90620087019E00120E1
:105A800001073648FCF71DFE002804D1FFE701A9F5
:105A9000072008700CE00120C1073048FCF711FE18
:105AA000002804D1FFE701A908200870FFE7FFE7FD
:105AB000FFE7FFE7FFE7FFE7FFE7FFE701A8007861
:105AC00002B080BD00000A4080B584B00020039081
:105AD000FEF746FB1E48FDF761F9FFE7FFF756FDAD
